:1000000038C050C35BC05AC08EC358C057C056C01A
:1000100055C054C053C052C022C350C04FC05E012F
:10002000011F01030301008A02010A01020201000B
:1000300064001E47040B0906007C0101060103034E
:100040000100F401060E0102020100C201170101C4
:10005000020201019600023E0106060100010204AF
:1000600008102001010101010100360038003700AD
:100070003E0311241FBECFE5D2E0DEBFCDBF10E0AE
:10008000A0E6B0E0E0E3FAE002C005900D92A236EF
:10009000B107D9F721E0A2E6B0E001C01D92AD3171
:1000A000B207E1F710E0C9E3D0E003C02197FE01F9
:1000B000AED4C833D107D1F723D3B8C4A1CF9C01A4
:1000C000CB010197079710F061E070E0CB01019739
:1000D00069E070E077D4BC01625E7F4F49E050E098
:1000E000C90106969AC40F931F93CF93DF93EC0137
:1000F0000FEF1FEF1B830A838AE090E09D838C83C0
:1001000061E070E0CE01DBDF198308838CE390E0CF
:1001100090936100809360001092F6001092F700B7
:100120001092F8001092F900DF91CF911F910F917A
:100130000895FC01808191818F3FFFEF9F0789F037
:100140001092F6001092F7001092F8001092F90049
:100150001092F5001092F40041E050E06BEA71E07B
:1001600090C20895FC0171836083E3CF4091F60053
:100170005091F7006091F8007091F90081E0452BF3
:10018000462B472B09F480E008956091F6007091AA
:10019000F7008091F8009091F90008952F923F9216
:1001A0004F925F926F927F928F929F92AF92BF9287
:1001B000CF92DF92EF92FF920F931F93CF93DF9333
:1001C000CDB7DEB72D970FB6F894DEBF0FBECDBF0B
:1001D0008C017B01019769E070E0F4D3BC01625EA1
:1001E0007F4F49E050E0CE01019617D48B816C819E
:1001F000681708F4682F70E080916A0090916B0096
:10020000F2D39B016091600070916100C901DAD363
:1002100064E670E0E8D36B018985811103C0A1E039
:10022000B0E002C0A2E0B0E08D8190E0B901CAD395
:100230009B878A878E8190E0B901C4D31C018F818E
:1002400090E0B901BFD32C01888590E0B901BAD301
:100250003C01FD01EE0FFF1FE659FF4F812C912C51
:100260005401B70161507109A617B707F0F5880C62
:10027000991CAA1CBB1C808191819D878C87AC0135
:100280008A859B85481B590B57FF03C051954195A3
:1002900051094C155D0560F442815381421953099F
:1002A00057FF03C05195419551094C155D05D0F09C
:1002B0008C859D858419950997FF03C0919581953B
:1002C00091098C159D0568F582819381861997099E
:1002D00097FF03C09195819591098C159D0508F5AF
:1002E000689480F812963496BFCF98E0E916F1042E
:1002F000C0F08092F6009092F700A092F800B092C1
:10030000F900769567957093F5006093F40030934B
:10031000F3002093F2001093F1000093F00081E0CD
:1003200001C080E02D960FB6F894DEBF0FBECDBFA2
:10033000DF91CF911F910F91FF90EF90DF90CF90C1
:10034000BF90AF909F908F907F906F905F904F90F5
:100350003F902F900895CF92DF92EF92FF920F93EC
:100360001F93CF93DF9332D26B017C0180916600A3
:10037000909167008601081B190B0D3C20E11207C4
:1003800088F180916A0090916B009801281B390BCD
:10039000C90137FF03C0919581959109883C91056A
:1003A000ECF4809164009091650001969093650053
:1003B00080936400029791F4C1E0D0E06091620004
:1003C00070916300CE01EADE811104C02196C8302D
:1003D000D105A1F71092650010926400109263009D
:1003E00010926200809162009091630083349105C5
:1003F00040F010926300109262001092650010921B
:10040000640080916200909163009C012F5F3F4FD8
:100410003093630020936200880F991FFC01E65916
:10042000FF4F11830083C0926600D0926700E09274
:100430006800F0926900DF91CF911F910F91FF90BA
:10044000EF90DF90CF900895CF93DF9361E081E04C
:1004500020D2C4E0D0E061E081E056D26AEF70E0E3
:1004600080E090E0D9D160E081E04ED26AEF70E0A8
:1004700080E090E0D1D1219771F762E080E009D26D
:10048000C0E060E08C2F05D260E08C2F3DD2CF5FC2
:10049000C630B9F7379860E070E083E091E062DE43
:1004A000A8959CE088E10FB6F894A89581BD0FBE91
:1004B00091BD81B5806481BD789485B7877E806168
:1004C00085BF78D16093FB007093FC008093FD00A2
:1004D0009093FE0081E08093FA00DF91CF91089520
:1004E0000F931F9362E080E0D4D180E040D2892B4B
:1004F00089F460D16093FB007093FC008093FD0051
:100500009093FE0081E08093FA0060E070E083E069
:1005100091E028DE4FD10091FB001091FC0020916A
:10052000FD003091FE00DC01CB01801B910BA20B82
:10053000B30B81319742A105B10588F01092FA0002
:100540009CE088E10FB6F894A89581BD0FBE91BDDF
:1005500080E481BD789485B7877E806185BF809176
:10056000FA00811104C085B7806285BF88958091AB
:10057000FA00882309F470C01DD10091FF0010918A
:1005800000012091010130910201DC01CB01801BAF
:10059000910BA20BB30B89399A43A105B10528F041
:1005A000012B022B032B09F042C083E091E0DEDD3A
:1005B000882309F451C0FED06093FB007093FC00C7
:1005C0008093FD009093FE0083E091E0DEDD6F32CA
:1005D00028EA720781059105B9F4ECD06093FF0019
:1005E00070930001809301019093020161E081E02A
:1005F00050D161E081E04DD161E081E085D161E0E1
:1006000081E01F910F9180C16E32784A810591057A
:1006100019F560E081E078D160E081E075D160E0BB
:1006200081E037D160E081E01F910F9132C11092DB
:10063000FF0010920001109201011092020160E08F
:1006400081E062D160E081E05FD160E081E021D1B2
:1006500060E081E01ED1A9CF1F910F9108951F92F4
:100660000F920FB60F9211248F9381B5806481BDD4
:100670008F910F900FBE0F901F90189583E091E01F
:1006800032CD81110EC08FB7F8947093130160932F
:1006900012018FBF85B78C7F482B45BF8BB7806415
:1006A0008BBF089578941F920F920FB60F9211246A
:1006B0002F933F934F935F936F937F938F939F936A
:1006C000AF93BF93EF93FF93809112019091130129
:1006D000892B29F0E0911201F09113010995FF9106
:1006E000EF91BF91AF919F918F917F916F915F91AA
:1006F0004F913F912F910F900FBE0F901F90189523
:10070000AFD0A2DEEDDEFECF83B7887F83BF8AB590
:100710008C7F81608ABD83B7877F83BF83B7887FE3
:10072000836083BF089578941F920F920FB60F9243
:1007300011242F933F938F939F93AF93BF938091F7
:10074000150190911601A0911701B09118013091F7
:1007500014012CE7230F2D3728F02FEF230F0196DC
:10076000A11DB11D209314018093150190931601D2
:10077000A0931701B09318018091190190911A016B
:10078000A0911B01B0911C010196A11DB11D809388
:10079000190190931A01A0931B01B0931C01BF9102
:1007A000AF919F918F913F912F910F900FBE0F901E
:1007B0001F9018952FB7F89460911501709116014C
:1007C00080911701909118012FBF08953FB7F894B9
:1007D0008091190190911A01A0911B01B0911C0107
:1007E0002FB508B602FE05C02F3F19F00196A11DD6
:1007F000B11D3FBFBA2FA92F982F8827820F911DB7
:10080000A11DB11DBC01CD0142E0660F771F881FFD
:10081000991F4A95D1F70895CF92DF92EF92FF92F8
:10082000CF93DF936B017C01D1DFEB01C114D104C5
:10083000E104F10471F0CADF6C1B7D0B683E73406C
:10084000A8F381E0C81AD108E108F108C851DC4FCB
:10085000EDCFDF91CF91FF90EF90DF90CF90089593
:10086000789480B7806880BF80B7806480BF8CB583
:1008700080648CBD8FEF8DBD80B7807F876080BF27
:1008800089B7846089BF40DF86B1876086B9379AAF
:100890000895CF93DF9390E0FC01E35AFF4F24913A
:1008A000FC01ED59FF4F8491882359F190E0FC0140
:1008B000E359FF4FE491CE2FD0E0FC01E559FF4F03
:1008C0008491611108C09FB7F8948881E22FE09568
:1008D000E823E8830EC0623071F4A82FB0E09FB720
:1008E000F8948881322F309583238883EC91E22B12
:1008F000EC939FBF06C08FB7F894E881E22BE883A2
:100900008FBFDF91CF910895282F30E0F901E35A8E
:10091000FF4F9491F901ED59FF4FE491EE2331F12E
:10092000811103C08AB58F7304C0813021F48AB568
:100930008F7C8ABD05C0843019F48CB58F7C8CBD4A
:10094000F0E0E559FF4FA491B0E0611109C02FB765
:10095000F8948C91E92FE095E823EC932FBF08954C
:100960008FB7F894EC91E92BEC938FBF0895282F63
:1009700030E0F901E35AFF4F9491F901ED59FF4F2F
:10098000E491EE23E1F0811103C08AB58F7304C0B6
:10099000813021F48AB58F7C8ABD05C0843019F47A
:1009A0008CB58F7C8CBDF0E0E759FF4FA491B0E08F
:1009B000EC91E92381E090E021F480E0089580E06B
:1009C00090E008950024552704C0080E591F880F91
:1009D000991F009729F076956795B8F37105B9F7D7
:1009E000802D952F0895AA1BBB1B51E107C0AA1F9C
:1009F000BB1FA617B70710F0A61BB70B881F991FC0
:100A00005A95A9F780959095BC01CD010895EE0FF8
:100A1000FF1F0590F491E02D0994FB01DC0102C059
:100A200005900D9241505040D8F70895F894FFCFAB
:020A30003C0088
:00000001FF
