:100000000C9482000C9499040C9472040C94AA0031
:100010000C94AA000C94AA000C94AA000C94AA00B8
:100020000C94AA000C94AA000C94AA000C94180535
:100030000C94AA000C94AA000C94AA000C94AA0098
:100040000C9428040C94AA000C94E6040C94C004AC
:100050000C94AA000C94AA000C94AA000C94AA0078
:100060000C94AA000C94AA000000000023002600B3
:10007000290000000000240027002A0000000000E2
:10008000250028002B0004040404040404040202D4
:100090000202020203030303030301020408102007
:1000A0004080010204081020010204081020000012
:1000B0000008000201000003040700000000000027
:1000C00000005E01011F01030301008A02010A0111
:1000D0000202010064001E47040B0906007C0101B6
:1000E000060103030100F401060E0102020100C231
:1000F00001170101020201019600023E01060601FC
:1001000000007C0511241FBECFEFD8E0DEBFCDBFBD
:1001100022E0AAE2B1E001C01D92A13AB207E1F7E4
:1001200011E0A0E0B1E0EEE2F0E102C005900D9236
:10013000AA32B107D9F710E0C2E8D0E004C0219795
:10014000FE010E94DF07C138D107C9F70E94D3051D
:100150000C9415080C940000E091F101F091F2016B
:100160000190F081E02D69E081EF91E00994833006
:1001700081F028F4813099F08230A1F00895873021
:10018000A9F08830B9F08430D1F4809180008F7D5F
:1001900003C0809180008F7780938000089584B59C
:1001A0008F7702C084B58F7D84BD08958091B000A3
:1001B0008F7703C08091B0008F7D8093B000089549
:1001C0001F93CF93DF93282F30E0F901E255FF4FC3
:1001D0008491F901E656FF4FD491F901EA57FF4F98
:1001E000C491CC23C9F0162F81110E94B700EC2FC7
:1001F000F0E0EE0FFF1FE458FF4FA591B4918FB7C9
:10020000F894111105C09C91ED2FE095E92302C0EF
:10021000EC91ED2BEC938FBFDF91CF911F9108955F
:10022000CF93DF9390E0FC01E656FF4F2491FC0151
:10023000EA57FF4F8491882361F190E0880F991F5E
:10024000FC01EE58FF4FC591D491FC01E458FF4FDB
:10025000A591B491611109C09FB7F8948881209548
:1002600082238883EC912E230BC0623061F49FB708
:10027000F8943881822F809583238883EC912E2BEC
:100280002C939FBF06C08FB7F894E8812E2B28834C
:100290008FBFDF91CF9108952FB7F8946091ED0152
:1002A0007091EE018091EF019091F0012FBF0895C0
:1002B0000895CF92DF92EF92FF920F931F93CF9307
:1002C000DF936C017A018B01C0E0D0E0CE15DF0531
:1002D00089F0D8016D918D01D601ED91FC910190CD
:1002E000F081E02DC6010995892B11F47E0102C031
:1002F0002196ECCFC701DF91CF911F910F91FF9015
:10030000EF90DF90CF900895FC01918D828D98172A
:1003100061F0828DDF01A80FB11D5D968C91928DE9
:100320009F5F9F73928F90E008958FEF9FEF0895E6
:10033000FC01918D828D981731F0828DE80FF11DAF
:10034000858D90E008958FEF9FEF0895FC01918DCA
:10035000228D892F90E0805C9F4F821B91098F73C3
:100360009927089581EF91E00E94A60121E0892B51
:1003700009F420E0822F0895FC01848DDF01A80F8D
:10038000B11DA35ABF4F2C91848D90E001968F73BD
:100390009927848FA689B7892C93A089B1898C91DC
:1003A00080648C93938D848D981306C00288F389A2
:1003B000E02D80818F7D80830895EF92FF920F93CF
:1003C0001F93CF93DF93EC0181E0888F9B8D8C8D01
:1003D000981305C0E889F989808185FD24C0F62E2F
:1003E0000B8D10E00F5F1F4F0F731127E02E8C8DC8
:1003F000E8120CC00FB607FCFACFE889F9898081B2
:1004000085FFF5CFCE010E94BC01F1CF8B8DFE019F
:10041000E80FF11DE35AFF4FF0820B8FEA89FB8949
:100420008081806207C0EE89FF896083E889F9894D
:1004300080818064808381E090E0DF91CF911F9183
:100440000F91FF90EF900895CF93DF93EC01888D8B
:100450008823C9F0EA89FB89808185FD05C0A889C8
:10046000B9898C9186FD0FC00FB607FCF5CF80814E
:1004700085FFF2CFA889B9898C9185FFEDCFCE0198
:100480000E94BC01E7CFDF91CF91089580E090E01A
:10049000892B29F00E94B20181110C94000008956B
:1004A0002F923F924F925F926F927F928F929F9284
:1004B000AF92BF92CF92DF92EF92FF920F931F9372
:1004C000CF93DF93CDB7DEB765970FB6F894DEBF55
:1004D0000FBECDBF9FB7F8948090E8019090E901DE
:1004E000A090EA01B090EB0186B5A89B07C08F3FB2
:1004F00029F02FEF821A920AA20AB20A9FBFBA2CE1
:10050000A92C982C8824880E911CA11CB11C32E0C7
:10051000880C991CAA1CBB1C3A95D1F780915301F9
:10052000909154012401481A590A3DEC431630E1D8
:10053000530608F4F6C080915B0190915C01A20122
:10054000481B590BCA0157FF03C09195819591092A
:10055000883C91050CF0E1C08091510190915201CD
:1005600001969093520180935101029709F0D5C0F2
:1005700092EC692E90E0792E01E010E020904F017E
:10058000309050013B862A8649E050E0B301CE010D
:1005900001960E94EA078C816B81681708F4682F26
:1005A00070E080915B0190915C010E94CB079B0100
:1005B0004091060150910701649FC001659F900D15
:1005C000749F900D112464E670E00E94CB0789852A
:1005D000811103C0A1E0B0E002C0A2E0B0E08D81D3
:1005E000829FA001839F500D11245D874C878E81CF
:1005F000829F1001839F300C11243F862E868F81AD
:10060000829FA001839F500D1124598B488B8885B0
:10061000829F1001839F300C11243B8A2A8AFD019E
:10062000EE0FFF1FE55AFE4FC12CD12C76014A85F3
:100630005B85415051095D8B4C8B8C899D89A81736
:10064000B90708F040C0CC0CDD1CEE1CFF1C8081FB
:100650009181AC012C843D844219530957FF03C09A
:100660005195419551094617570770F442815381BE
:100670002E843F844219530957FF03C05195419579
:10068000510946175707E0F02888398882199309DD
:1006900097FF03C09195819591098617970780F57B
:1006A000828193814A895B89841B950B97FF03C0E4
:1006B0009195819591098617970710F56894C0F870
:1006C00012963496BACF4A855B8548305105C0F002
:1006D000C0928E02D0928F02E0929002F09291022C
:1006E0001C01369427943092580120925701309380
:1006F0005A01209359011093E2010093E10109C0CE
:100700000F5F1F4F59E0650E711C0830110509F08D
:1007100035CF109252011092510110925001109257
:100720004F0180914F01909150018334910540F029
:100730001092500110924F011092520110925101EB
:1007400080914F01909150019C012F5F3F4F30935A
:10075000500120934F01880F991FFC01E55AFE4F6D
:10076000518240828092530190925401A09255018F
:10077000B092560165960FB6F894DEBF0FBECDBF9E
:10078000DF91CF911F910F91FF90EF90DF90CF906D
:10079000BF90AF909F908F907F906F905F904F90A1
:1007A0003F902F900895009769F0FC010190002080
:1007B000E9F73197AF01481B590BBC0181EF91E07C
:1007C0000C94590180E090E008958F929F92AF922F
:1007D000BF920F931F93CF93DF93CDB7DEB7A1974F
:1007E0000FB6F894DEBF0FBECDBF19A2423008F499
:1007F0004AE08E010F5D1F4F842E912CA12CB12C4D
:10080000A50194010E94F307E62FB901CA01015026
:100810001109EA3014F4E05D01C0E95CD801EC9301
:10082000232B242B252B61F7C8010E94D303A1960B
:100830000FB6F894DEBF0FBECDBFDF91CF911F91F1
:100840000F91BF90AF909F908F9008950E94E50701
:100850001F920F920FB60F9211242F933F938F93F5
:100860009F93AF93BF938091ED019091EE01A09182
:10087000EF01B091F0013091EC0123E0230F2D370F
:1008800020F40196A11DB11D05C026E8230F029694
:10089000A11DB11D2093EC018093ED019093EE0119
:1008A000A093EF01B093F0018091E8019091E901EC
:1008B000A091EA01B091EB010196A11DB11D8093B9
:1008C000E8019093E901A093EA01B093EB01BF9195
:1008D000AF919F918F913F912F910F900FBE0F90ED
:1008E0001F9018951F920F920FB60F9211242F93FD
:1008F0003F934F935F936F937F938F939F93AF93A8
:10090000BF93EF93FF93E0910201F09103010995EA
:10091000FF91EF91BF91AF919F918F917F916F91D7
:100920005F914F913F912F910F900FBE0F901F90AD
:1009300018951F920F920FB60F9211242F933F9389
:100940004F935F936F937F938F939F93AF93BF93D7
:10095000EF93FF93E0910001F09101010995FF9160
:10096000EF91BF91AF919F918F917F916F915F9127
:100970004F913F912F910F900FBE0F901F901895A0
:100980001F920F920FB60F9211242F933F934F9304
:100990005F936F937F938F939F93AF93BF93EF93E7
:1009A000FF9381EF91E00E94BC01FF91EF91BF9115
:1009B000AF919F918F917F916F915F914F913F91F7
:1009C0002F910F900FBE0F901F9018951F920F92AE
:1009D0000FB60F9211242F938F939F93EF93FF9352
:1009E000E0910102F09102028081E0910702F09112
:1009F000080282FD12C0908180910A028F5F8F737E
:100A000020910B02821751F0E0910A02F0E0EF50C2
:100A1000FE4F958F80930A0201C08081FF91EF9174
:100A20009F918F912F910F900FBE0F901F9018954F
:100A30001F920F920FB60F9211242F933F938F9313
:100A40009F93EF93FF9380914E0187FF05C0109213
:100A500085001092840005C080914E0187FD809131
:100A60004E0180914E018F5F80934E0180914E0127
:100A700087FF20C080914E018C30E4F420918400E7
:100A80003091850080914E01082E000C990BFC01DD
:100A9000EE0FFF1F8E0F9F1FFC01E65DFE4F818151
:100AA0009281820F931F9093890080938800809198
:100AB0004E0117C080918400909185000496803487
:100AC0009C4918F480E49CE905C0809184009091D1
:100AD0008500049690938900809388008FEF80931F
:100AE0004E01FF91EF919F918F913F912F910F9028
:100AF0000FBE0F901F9018950F931F93CF93DF9306
:100B0000E1EFF1E01382128288EE93E0A0E0B0E022
:100B100084839583A683B78380E191E0918380836A
:100B200085EC90E09587848784EC90E097878687B2
:100B300080EC90E0918B808B81EC90E0938B828BAA
:100B400082EC90E0958B848B86EC90E0978B868B83
:100B5000118E128E138E148EC2E9D2E00FEF1FEFAA
:100B60001B830A838AE090E09D838C8349E050E0F8
:100B700062EC70E088E992E00E94EA07198308833A
:100B80008CE390E0909307018093060110928E020F
:100B900010928F021092900210929102DF91CF91E9
:100BA0001F910F910895789484B5826084BD84B5B7
:100BB000816084BD85B5826085BD85B5816085BD58
:100BC00080916E00816080936E0010928100809110
:100BD0008100826080938100809181008160809398
:100BE0008100809180008160809380008091B100BD
:100BF00084608093B1008091B00081608093B000E8
:100C000080917A00846080937A0080917A0082607B
:100C100080937A0080917A00816080937A0080913D
:100C20007A00806880937A001092C100E0910102FE
:100C3000F091020282E08083E091FD01F091FE01DB
:100C40001082E091FF01F091000280E18083109218
:100C50000902E0910502F091060286E08083E091AE
:100C60000302F0910402808180618083E09103029D
:100C7000F0910402808188608083E0910302F0910A
:100C80000402808180688083E0910302F091040275
:100C900080818F7D80838CE191E00E94D30387E285
:100CA00091E00E94D30362E085E00E94100161E0C0
:100CB0008DE00E94100161E08CE00E94100161E073
:100CC0008BE00E94100161E08AE00E94100161E067
:100CD00089E00E94100161E08CE00E94E00061E088
:100CE0008BE00E94E00061E08AE00E94E00061E0A9
:100CF00089E00E94E00081E090E09093930280936D
:100D0000920210928E0210928F0210929002109214
:100D10009102109258011092570180E592E0909351
:100D200003018093020180916900837F8460809336
:100D30006900E99AC2E0D0E003EB10E03FE9E32E5E
:100D400030E0F32E4BE8C42E40E0D42E8090E40136
:100D50009090E501A090E601B090E7018114910424
:100D6000A104B10481F10E944C01DC01CB0188197E
:100D70009909AA09BB0980339547A105B10518F562
:100D800060E08CE00E94E00081E08093E3010E943B
:100D90004C01DC01CB0188199909AA09BB098C3DDA
:100DA0009540A105B10578F50E944C01DC01CB010D
:100DB00088199909AA09BB09893E9340A105B10583
:100DC00008F0C1C020C061E08CE00E94E00080918A
:100DD000E301882399F01092E3018091040190913E
:100DE00005010196853091052CF4909305018093BF
:100DF000040104C0D0930501C0930401811491043F
:100E0000A104B10421F661E08BE00E94E00061E002
:100E10008AE00E94E00061E089E00E94E000F801C1
:100E20008491F701A490F601B490BB2009F4A0C00E
:100E300081110E94B7008B2D90E0880F991F88596F
:100E40009F4FFC01A591B4918C91A82209F490C008
:100E500080918E0290918F02A0919002B0919102A8
:100E6000892B8A2B8B2B09F46BC061E08DE00E94EB
:100E7000E00080918E0290918F02A0919002B0913B
:100E800091028F32984AA842B10551F40E944C0158
:100E90006093E4017093E5018093E6019093E7018C
:100EA00060918E0270918F028091900290919102D8
:100EB0004AE00E94E5030E94AC00609157017091E6
:100EC000580180E090E04AE00E94E5030E94AC00F7
:100ED0006091590170915A0180E090E04AE00E94CF
:100EE000E5030E94AC008BE5A82E81E0B82EF50149
:100EF000619171915F0180E090E04AE00E94E5031A
:100F0000F1EEAF16F1E0BF0691F70E94AC006091E0
:100F1000E1017091E20180E090E04AE00E94E50387
:100F200010928E0210928F021092900210929102F3
:100F300087E291E00E94D30360E08DE00E94E00030
:100F40000E94460203CF80910401909105018230F6
:100F5000910519F460E08BE060CF8330910519F4BE
:100F600060E08AE05ACF049709F059CF60E054CF8F
:100F700061E08DE00E94E0000E944C016093E4017A
:100F80007093E5018093E6019093E70160E08DE0C6
:100F90000E94E0005DCFAA1BBB1B51E107C0AA1F46
:100FA000BB1FA617B70710F0A61BB70B881F991F0A
:100FB0005A95A9F780959095BC01CD010895EE0F43
:100FC000FF1F0590F491E02D099481E090E0F894E2
:100FD0000C941508FB01DC0102C005900D924150F4
:100FE0005040D8F70895A1E21A2EAA1BBB1BFD01A1
:100FF0000DC0AA1FBB1FEE1FFF1FA217B307E407F8
:10100000F50720F0A21BB30BE40BF50B661F771F4F
:10101000881F991F1A9469F760957095809590952F
:0E1020009B01AC01BD01CF010895F894FFCFF4
:10102E005801580102003C000100000000000000C1
:10103E00DD015901A6018401980124020A424947A3
:0A104E00425554544F4E000D0A00A5
:00000001FF
