:1000000038C0A1C35BC05AC0DFC358C057C056C078
:1000100055C054C053C052C06AC350C04FC05E01E7
:10002000011F01030301008A02010A01020201000B
:1000300064001E47040B0906007C0101060103034E
:100040000100F401060E0102020100C201170101C4
:10005000020201019600023E0106060100010204AF
:1000600008102001010101010100360038003700AD
:10007000850311241FBECFE5D2E0DEBFCDBF10E067
:10008000A0E6B0E0EAE8FAE002C005900D92A236E0
:10009000B107D9F721E0A2E6B0E001C01D92A3327A
:1000A000B207E1F710E0C9E3D0E003C02197FE01F9
:1000B000DBD4C833D107D1F774D3E5C4A1CF9C01F9
:1000C000CB010197079710F061E070E0CB01019739
:1000D00069E070E0A4D4BC01625E7F4F49E050E06B
:1000E000C9010696C7C40F931F93CF93DF93EC010A
:1000F0000FEF1FEF1B830A838AE090E09D838C83C0
:1001000061E070E0CE01DBDF198308838CE390E0CF
:1001100090936100809360001092F6001092F700B7
:100120001092F8001092F900DF91CF911F910F917A
:100130000895FC01808191818F3FFFEF9F0789F037
:100140001092F6001092F7001092F8001092F90049
:100150001092F5001092F40041E050E060EC71E084
:10016000D7C20895FC0171836083E3CFCF93DF93FF
:10017000EC018881DED28FEF9FEF99838883DF9136
:10018000CF9108954091F6005091F7006091F800EA
:100190007091F90081E0452B462B472B09F480E054
:1001A00008951092F6001092F7001092F800109245
:1001B000F90008956091F6007091F7008091F800C1
:1001C0009091F90008952F923F924F925F926F9213
:1001D0007F928F929F92AF92BF92CF92DF92EF92D7
:1001E000FF920F931F93CF93DF93CDB7DEB72D9779
:1001F0000FB6F894DEBF0FBECDBF8C017B01019717
:1002000069E070E00CD4BC01625E7F4F49E050E0D1
:10021000CE0101962FD48B816C81681708F4682F6A
:1002200070E080916A0090916B000AD49B0160910C
:10023000600070916100C901F2D364E670E000D4FF
:100240006B018985811103C0A1E0B0E002C0A2E08A
:10025000B0E08D8190E0B901E2D39B878A878E81DF
:1002600090E0B901DCD31C018F8190E0B901D7D3B4
:100270002C01888590E0B901D2D33C01FD01EE0F3D
:10028000FF1FE659FF4F812C912C5401B70161509B
:100290007109A617B707F0F5880C991CAA1CBB1C9E
:1002A000808191819D878C87AC018A859B85481BC5
:1002B000590B57FF03C05195419551094C155D05E8
:1002C00060F4428153814219530957FF03C051958D
:1002D000419551094C155D05D0F08C859D8584199B
:1002E000950997FF03C09195819591098C159D05FE
:1002F00068F5828193818619970997FF03C09195CC
:10030000819591098C159D0508F5689480F81296E1
:100310003496BFCF98E0E916F104C0F08092F60061
:100320009092F700A092F800B092F9007695679548
:100330007093F5006093F4003093F3002093F20083
:100340001093F1000093F00081E001C080E02D9651
:100350000FB6F894DEBF0FBECDBFDF91CF911F91D6
:100360000F91FF90EF90DF90CF90BF90AF909F9054
:100370008F907F906F905F904F903F902F90089557
:10038000CF92DF92EF92FF920F931F93CF93DF9361
:100390006ED26B017C0180916600909167008601AE
:1003A000081B190B0D3C20E1120788F180916A00AF
:1003B00090916B009801281B390BC90137FF03C0CE
:1003C000919581959109883C9105ECF480916400A8
:1003D0009091650001969093650080936400029768
:1003E00091F4C1E0D0E06091620070916300CE01B1
:1003F000EADE811104C02196C830D105A1F7109220
:100400006500109264001092630010926200809167
:100410006200909163008334910540F01092630074
:100420001092620010926500109264008091620048
:10043000909163009C012F5F3F4F309363002093A6
:100440006200880F991FFC01E659FF4F118300835A
:10045000C0926600D0926700E0926800F092690056
:10046000DF91CF911F910F91FF90EF90DF90CF9090
:10047000089589E091E07ADEEED16093FA007093FE
:10048000FB008093FC009093FD0061E081E02ED2A0
:1004900081E090E09093030180930201089560E071
:1004A00070E089E091E05EDE61E084E01FD260E010
:1004B00084E057D2D0D16093FE007093FF00809308
:1004C00000019093010161E081E010D210920301DC
:1004D000109202010895CF9360E080E007D2C0E05F
:1004E00060E08C2F03D260E08C2F3BD2CF5FC63010
:1004F000B9F73798D4DFA8959CE088E10FB6F89457
:10050000A89581BD0FBE91BDCF91089589E091E07E
:100510002DDE61E084E0EAD161E084E022D29CE05B
:1005200088E10FB6F894A89581BD0FBE91BD80E417
:1005300081BD789485B7877E806185BF60E081E06A
:10054000D5D160E080E0D2D182E090E090930301C9
:100550008093020108950F931F93A8957CD1009179
:100560000401109105012091060130910701AB01B2
:10057000BC01401B510B620B730B809102019091E7
:100580000301019626E0880F991F2A95E1F7092EAD
:10059000000CAA0BBB0B84179507A607B70780F4BE
:1005A0005AD16093040170930501809306019093E2
:1005B00007016091080181E0682760930801D1D1AB
:1005C0008091020190910301029769F460E080E05C
:1005D0008DD180E0F9D1892B11F04BDF04C085B7B4
:1005E000806285BF889580910201909103010197F7
:1005F00029F531D10091FA001091FB002091FC0007
:100600003091FD00DC01CB01801B910BA20BB30BE1
:1006100081379741A105B10508F041DF60E080E036
:1006200065D180E0D1D1892B49F015D16093FA00D2
:100630007093FB008093FC009093FD008091020179
:1006400090910301892B09F04FC060E080E04ED10A
:1006500080E0BAD1892B09F00CDFFDD00091FE00BB
:100660001091FF002091000130910101DC01CB01CC
:10067000801B910BA20BB30B813C9D45A105B105DD
:1006800008F044DF89E091E07DDD882369F189E0AD
:1006900091E090DD6F32784A8105910501F5E9DE40
:1006A00061E081E023D161E080E020D160E081E081
:1006B00058D161E080E055D180E092E020E032E066
:1006C000A89521503109E1F70197C1F761E081E078
:1006D00048D160E080E045D160E080E007D189E06A
:1006E00091E01F910F915DCD1F910F9108951F9281
:1006F0000F920FB60F9211248F9380E481BD8F91DA
:100700000F900FBE0F901F90189589E091E0EBCCF1
:1007100081110EC08FB7F89470931901609318017E
:100720008FBF85B78C7F482B45BF8BB780648BBF4D
:100730000895811107C08BB78F7B8BBF1092190171
:1007400010921801089578941F920F920FB60F928D
:1007500011242F933F934F935F936F937F938F93C6
:100760009F93AF93BF93EF93FF9380911801909164
:100770001901892B29F0E0911801F09119010995CF
:10078000FF91EF91BF91AF919F918F917F916F9169
:100790005F914F913F912F910F900FBE0F901F903F
:1007A00018958BD098DED7DEFECF83B7887F83BFC6
:1007B0008AB58C7F81608ABD83B7877F83BF83B70B
:1007C000887F836083BF089578941F920F920FB63D
:1007D0000F9211242F933F938F939F93AF93BF93C7
:1007E00080911B0190911C01A0911D01B0911E01EF
:1007F00030911A012CE7230F2D3728F02FEF230F0C
:100800000196A11DB11D20931A0180931B019093A5
:100810001C01A0931D01B0931E0180911F019091B6
:100820002001A0912101B09122010196A11DB11DCD
:1008300080931F0190932001A0932101B093220186
:10084000BF91AF919F918F913F912F910F900FBECC
:100850000F901F9018952FB7F89460911B0170911D
:100860001C0180911D0190911E012FBF08953FB77B
:10087000F89480911F0190912001A0912101B091E5
:1008800022012FB508B602FE05C02F3F19F00196D0
:10089000A11DB11D3FBFBA2FA92F982F8827820F06
:1008A000911DA11DB11DBC01CD0142E0660F771F56
:1008B000881F991F4A95D1F70895789480B780686A
:1008C00080BF80B7806480BF8CB580648CBD8FEFA3
:1008D0008DBD80B7807F876080BF89B7846089BF06
:1008E00064DF86B1876086B9379A0895CF93DF9326
:1008F00090E0FC01E35AFF4F2491FC01ED59FF4FBA
:100900008491882359F190E0FC01E359FF4FE49171
:10091000CE2FD0E0FC01E559FF4F8491611108C052
:100920009FB7F8948881E22FE095E823E8830EC012
:10093000623071F4A82FB0E09FB7F8948881322F0D
:10094000309583238883EC91E22BEC939FBF06C004
:100950008FB7F894E881E22BE8838FBFDF91CF91C6
:100960000895282F30E0F901E35AFF4F9491F901DF
:10097000ED59FF4FE491EE2331F1811103C08AB5A7
:100980008F7304C0813021F48AB58F7C8ABD05C085
:10099000843019F48CB58F7C8CBDF0E0E559FF4FA5
:1009A000A491B0E0611109C02FB7F8948C91E92FA0
:1009B000E095E823EC932FBF08958FB7F894EC915E
:1009C000E92BEC938FBF0895282F30E0F901E35A0B
:1009D000FF4F9491F901ED59FF4FE491EE23E1F0BF
:1009E000811103C08AB58F7304C0813021F48AB5A8
:1009F0008F7C8ABD05C0843019F48CB58F7C8CBD8A
:100A0000F0E0E759FF4FA491B0E0EC91E92381E0D9
:100A100090E021F480E0089580E090E008950024C3
:100A2000552704C0080E591F880F991F009729F0F9
:100A300076956795B8F37105B9F7802D952F0895D0
:100A4000AA1BBB1B51E107C0AA1FBB1FA617B707F4
:100A500010F0A61BB70B881F991F5A95A9F7809510
:100A60009095BC01CD010895EE0FFF1F0590F49104
:100A7000E02D0994FB01DC0102C005900D9241506C
:0A0A80005040D8F70895F894FFCF16
:020A8A003C002E
:00000001FF
