:1000000038C05CC05BC05AC012C258C057C056C08E
:1000100055C054C053C052C0E5C150C04FC05E016E
:10002000011F01030301008A02010A01020201000B
:1000300064001E47040B0906007C0101060103034E
:100040000100F401060E0102020100C201170101C4
:10005000020201019600023E0106060100010204AF
:1000600008102001010101010100360038003700AD
:10007000010211241FBECFE5D2E0DEBFCDBF10E0EC
:10008000A0E6B0E0ECE3F7E002C005900D92A836E0
:10009000B107D9F720E0A8E6B0E001C01D92AE3765
:1000A000B207E1F710E0C9E3D0E003C02197FE01F9
:1000B00034D3C833D107D1F7A7D13EC3A1CF9C0118
:1000C000CB010197079710F061E070E0CB01019739
:1000D00069E070E011D3BC01625E7F4F49E050E0FF
:1000E000C901049620C32FEF3FEFFC013183208329
:1000F0002AE030E03383228361E070E0E0CFFC014E
:10010000862F6083718361E05EC2FF920F931F931D
:10011000CF93DF93EC01F62E072F8C85882319F0FF
:1001200060E011E002C061E010E0888187D26C815C
:100130007D818F2D90E0E0D20BD2612F88817ED21D
:100140006C817D81802F90E0D7D2DF91CF911F917C
:100150000F91FF90FDC14F925F926F927F928F92AD
:100160009F92AF92BF92CF92DF92EF92FF920F9346
:100170001F93CF93DF93DC01ED91FC91319609F44D
:1001800049C029016A017B01EC01612C712C812C91
:10019000912C540183948A819B81681679063CF5E1
:1001A00082010150110917FD1AC0D501C401002EAA
:1001B00004C0880F991FAA1FBB1F0A94D2F78C2175
:1001C0009D21AE21BF21892B8A2B8B2B19F06A85AB
:1001D0007B8502C068857985CE0197DFE2CF6E818D
:1001E0007F81CE0192DF8FEF681A780AD4CF60E06A
:1001F0008881DF91CF911F910F91FF90EF90DF9059
:10020000CF90BF90AF909F908F907F906F905F90B6
:100210004F9014C2DF91CF911F910F91FF90EF90FB
:10022000DF90CF90BF90AF909F908F907F906F9016
:100230005F904F900895CF92DF92EF92FF920F93CD
:100240001F93CF93C0906400D0906500009166002A
:1002500010916700019739F4C0906200D09063005C
:100260008601C4E001C0C1E061E08C2FACD161E047
:100270008C2FE4D161E080E0A6D160E070E088E6F8
:1002800090E03DDFE12CF12C28E130E0B701A60140
:1002900088E690E060DF28E130E0B701A60188E65B
:1002A00090E059DF28E130E0B701A60188E690E050
:1002B00052DF88E0E82EF12C60E08C2FBFD164EF94
:1002C00071E080E090E020D161E08C2FB7D164EF45
:1002D00071E080E090E018D181E0E81AF10861F760
:1002E00061E08C2F70D161E08C2FA8D161E080E0BB
:1002F0006AD160E070E088E690E001DF6801E12CFF
:10030000F12C28E130E0B701A60188E690E023DF78
:1003100028E130E0B701A60188E690E01CDF28E183
:1003200030E0B701A60188E690E015DF61E08C2F90
:100330004AD160E08C2F82D160E08C2FCF911F9149
:100340000F91FF90EF90DF90CF903DC1CF93C0E031
:1003500060E08C2F38D160E08C2F70D1CF5FC63039
:10036000B9F762E082E02FD162E083E02CD13798C8
:10037000A8959BE088E10FB6F894A89581BD0FBEC3
:1003800091BD81B5806481BD789485B7877E806199
:1003900085BFCF91089582E084D1892B51F480915B
:1003A0006100882349F080E090E045DF1092610011
:1003B00003C081E08093610083E073D1892B51F405
:1003C00080916000882349F081E090E034DF109252
:1003D000600003C081E08093600085B7806285BFC4
:1003E000889508951F920F920FB60F9211248F9344
:1003F00081B5806481BD8F910F900FBE0F901F90CB
:10040000189588E690E06FCEC5D0A0DFC4DFFECFA0
:1004100083B7887F83BF8AB58C7F81608ABD83B7AD
:10042000877F83BF83B7887F836083BF0895789475
:100430001F920F920FB60F9211242F933F938F9319
:100440009F93AF93BF938091760090917700A09196
:100450007800B0917900309175002CE7230F2D378B
:1004600028F02FEF230F0196A11DB11D20937500D9
:100470008093760090937700A0937800B0937900F2
:1004800080917A0090917B00A0917C00B0917D00DA
:100490000196A11DB11D80937A0090937B00A093DB
:1004A0007C00B0937D00BF91AF919F918F913F9160
:1004B0002F910F900FBE0F901F9018953FB7F89493
:1004C00080917A0090917B00A0917C00B0917D009A
:1004D0002FB508B602FE05C02F3F19F00196A11DE9
:1004E000B11D3FBFBA2FA92F982F8827820F911DCA
:1004F000A11DB11DBC01CD0142E0660F771F881F11
:10050000991F4A95D1F70895CF92DF92EF92FF920B
:10051000CF93DF936B017C01D1DFEB01C114D104D8
:10052000E104F10471F0CADF6C1B7D0B683E73407F
:10053000A8F381E0C81AD108E108F108C851DC4FDE
:10054000EDCFDF91CF91FF90EF90DF90CF900895A6
:100550008E7F82309105E8F000000000000000006E
:10056000000000000000000000000000000000008B
:10057000000000000000000000000000000000007B
:1005800000000000000000000000000000000297D2
:10059000E0CF0895789480B7806880BF80B780648A
:1005A00080BF8CB580648CBD8FEF8DBD80B7807FA0
:1005B000876080BF89B7846089BF2ADF86B1876082
:1005C00086B9379A0895CF93DF9390E0FC01E35A00
:1005D000FF4F2491FC01ED59FF4F8491882359F17D
:1005E00090E0FC01E359FF4FE491CE2FD0E0FC01F5
:1005F000E559FF4F8491611108C09FB7F894888135
:10060000E22FE095E823E8830EC0623071F4A82F52
:10061000B0E09FB7F8948881322F30958323888388
:10062000EC91E22BEC939FBF06C08FB7F894E88162
:10063000E22BE8838FBFDF91CF910895282F30E020
:10064000F901E35AFF4F9491F901ED59FF4FE491FD
:10065000EE2331F1811103C08AB58F7304C081305C
:1006600021F48AB58F7C8ABD05C0843019F48CB51D
:100670008F7C8CBDF0E0E559FF4FA491B0E0611193
:1006800009C02FB7F8948C91E92FE095E823EC93FB
:100690002FBF08958FB7F894EC91E92BEC938FBF9F
:1006A0000895282F30E0F901E35AFF4F9491F901A2
:1006B000ED59FF4FE491EE23E1F0811103C08AB5BB
:1006C0008F7304C0813021F48AB58F7C8ABD05C048
:1006D000843019F48CB58F7C8CBDF0E0E759FF4F66
:1006E000A491B0E0EC91E92381E090E021F480E076
:1006F000089580E090E008950024552704C0080E76
:10070000591F880F991F009729F076956795B8F3C0
:100710007105B9F7802D952F0895EE0FFF1F0590F5
:10072000F491E02D0994FB01DC0102C005900D92CB
:0C07300041505040D8F70895F894FFCFD6
:08073C0001012DA82FA82EA831
:00000001FF
